:0300000002004CAF
:200008000000E2FBEAF2802C0000E0FBEAF08024E6B50202EBF62200E2B50202EBF22200DE
:20002800E0B50202EBF02230F6E0A88220F5D3EAC6F582228B822230F6E6A88220F5D980EE
:01004800CFE8
:0300A5000200490D
:030049000201129F
:2000A800759850438920758DFD758BFDD28ED29922AF8210990280FB8F9922AD82AE83AF56
:2000C800F08D828E838FF0120126FC60188C820DBD00010EC007C006C0051200B9D005D033
:2000E80006D00780DC22AE82AF837C007D00C3EC9EED9F50147A787B001ABAFF011BEA4B74
:1E01080070F70CBC00E80D80E5221200A890014675F0801200C39003E81200EE80EFF9
:1901460048656C6C6F2066726F6D2041726368204C696E7578210D0A00D2
:06007B00E478FFF6D8FD59
:200059007900E94400601B7A0090015F780175A000E493F2A308B8000205A0D9F4DAF275ED
:02007900A0FFE6
:200081007800E84400600A790175A000E4F309D8FC7800E84400600C7900900001E4F0A37D
:0400A100D8FCD9FAB4
:0D004C00758107120142E582600302004940
:1C01260020F71430F6148883A88220F507E6A88375830022E280F7E49322E022E8
:0401420075820022A0
:00000001FF
